{
  "contractName": "MerchMarketPlace",
  "abi": [
    {
      "inputs": [],
      "stateMutability": "nonpayable",
      "type": "constructor"
    },
    {
      "inputs": [],
      "name": "OnlyOwner",
      "type": "error"
    },
    {
      "inputs": [],
      "name": "isStopped",
      "outputs": [
        {
          "internalType": "bool",
          "name": "",
          "type": "bool"
        }
      ],
      "stateMutability": "view",
      "type": "function",
      "constant": true
    },
    {
      "stateMutability": "payable",
      "type": "receive",
      "payable": true
    },
    {
      "inputs": [],
      "name": "stopContract",
      "outputs": [],
      "stateMutability": "nonpayable",
      "type": "function"
    },
    {
      "inputs": [],
      "name": "resumeContract",
      "outputs": [],
      "stateMutability": "nonpayable",
      "type": "function"
    },
    {
      "inputs": [
        {
          "internalType": "uint256",
          "name": "amount",
          "type": "uint256"
        }
      ],
      "name": "withdrawEther",
      "outputs": [],
      "stateMutability": "nonpayable",
      "type": "function"
    },
    {
      "inputs": [],
      "name": "superEmergencyWithdrawEther",
      "outputs": [],
      "stateMutability": "nonpayable",
      "type": "function"
    },
    {
      "inputs": [],
      "name": "selfDestruct",
      "outputs": [],
      "stateMutability": "nonpayable",
      "type": "function"
    },
    {
      "inputs": [
        {
          "internalType": "bytes16",
          "name": "merchId",
          "type": "bytes16"
        },
        {
          "internalType": "bytes32",
          "name": "zkproof",
          "type": "bytes32"
        }
      ],
      "name": "purchaseMerch",
      "outputs": [],
      "stateMutability": "payable",
      "type": "function",
      "payable": true
    },
    {
      "inputs": [
        {
          "internalType": "address",
          "name": "newOwner",
          "type": "address"
        }
      ],
      "name": "transferOwnership",
      "outputs": [],
      "stateMutability": "nonpayable",
      "type": "function"
    },
    {
      "inputs": [],
      "name": "getMerchCount",
      "outputs": [
        {
          "internalType": "uint256",
          "name": "",
          "type": "uint256"
        }
      ],
      "stateMutability": "view",
      "type": "function",
      "constant": true
    },
    {
      "inputs": [
        {
          "internalType": "uint256",
          "name": "index",
          "type": "uint256"
        }
      ],
      "name": "getMerchHashByIndex",
      "outputs": [
        {
          "internalType": "bytes32",
          "name": "",
          "type": "bytes32"
        }
      ],
      "stateMutability": "view",
      "type": "function",
      "constant": true
    },
    {
      "inputs": [
        {
          "internalType": "bytes32",
          "name": "merchHash",
          "type": "bytes32"
        }
      ],
      "name": "getMerchByHash",
      "outputs": [
        {
          "components": [
            {
              "internalType": "uint256",
              "name": "id",
              "type": "uint256"
            },
            {
              "internalType": "uint256",
              "name": "price",
              "type": "uint256"
            },
            {
              "internalType": "bytes32",
              "name": "zkproof",
              "type": "bytes32"
            },
            {
              "internalType": "address",
              "name": "owner",
              "type": "address"
            },
            {
              "internalType": "enum MerchMarketPlace.State",
              "name": "state",
              "type": "uint8"
            }
          ],
          "internalType": "struct MerchMarketPlace.Merch",
          "name": "",
          "type": "tuple"
        }
      ],
      "stateMutability": "view",
      "type": "function",
      "constant": true
    },
    {
      "inputs": [],
      "name": "getContractOwner",
      "outputs": [
        {
          "internalType": "address",
          "name": "",
          "type": "address"
        }
      ],
      "stateMutability": "view",
      "type": "function",
      "constant": true
    }
  ],
  "bytecode": "0x608060405260008060006101000a81548160ff02191690831515021790555034801561002a57600080fd5b5061003a3361003f60201b60201c565b610083565b80600460006101000a81548173ffffffffffffffffffffffffffffffffffffffff021916908373ffffffffffffffffffffffffffffffffffffffff16021790555050565b61109e806100926000396000f3fe6080604052600436106100ab5760003560e01c80635aed3ab5116100645780635aed3ab5146101a65780637fdc1401146101bd5780639cb8a26a146101e8578063c483bb71146101ff578063c4bc5da51461023c578063f2fde38b14610253576100b2565b80630ec087b8146100b757806312253a6c146100d357806318dec3fd146100ea5780633bed33ce146101275780633f683b6a14610150578063442890d51461017b576100b2565b366100b257005b600080fd5b6100d160048036038101906100cc9190610b3c565b61027c565b005b3480156100df57600080fd5b506100e86103f5565b005b3480156100f657600080fd5b50610111600480360381019061010c9190610bb2565b61047d565b60405161011e9190610bee565b60405180910390f35b34801561013357600080fd5b5061014e60048036038101906101499190610bb2565b61049a565b005b34801561015c57600080fd5b506101656105d8565b6040516101729190610c24565b60405180910390f35b34801561018757600080fd5b506101906105e9565b60405161019d9190610c80565b60405180910390f35b3480156101b257600080fd5b506101bb610613565b005b3480156101c957600080fd5b506101d2610767565b6040516101df9190610caa565b60405180910390f35b3480156101f457600080fd5b506101fd610771565b005b34801561020b57600080fd5b5061022660048036038101906102219190610cc5565b61082f565b6040516102339190610dfe565b60405180910390f35b34801561024857600080fd5b5061025161090b565b005b34801561025f57600080fd5b5061027a60048036038101906102759190610e45565b610993565b005b60008054906101000a900460ff161561029457600080fd5b600082336040516020016102a9929190610edb565b6040516020818303038152906040528051906020012090506000600360008154809291906102d690610f36565b9190505590508160026000838152602001908152602001600020819055506040518060a001604052808281526020013481526020018481526020013373ffffffffffffffffffffffffffffffffffffffff1681526020016000600281111561034157610340610d1f565b5b8152506001600084815260200190815260200160002060008201518160000155602082015181600101556040820151816002015560608201518160030160006101000a81548173ffffffffffffffffffffffffffffffffffffffff021916908373ffffffffffffffffffffffffffffffffffffffff16021790555060808201518160030160146101000a81548160ff021916908360028111156103e7576103e6610d1f565b5b021790555090505050505050565b6103fd6105e9565b73ffffffffffffffffffffffffffffffffffffffff163373ffffffffffffffffffffffffffffffffffffffff1614610461576040517f5fc483c500000000000000000000000000000000000000000000000000000000815260040160405180910390fd5b60016000806101000a81548160ff021916908315150217905550565b600060026000838152602001908152602001600020549050919050565b6104a26105e9565b73ffffffffffffffffffffffffffffffffffffffff163373ffffffffffffffffffffffffffffffffffffffff1614610506576040517f5fc483c500000000000000000000000000000000000000000000000000000000815260040160405180910390fd5b6000600460009054906101000a900473ffffffffffffffffffffffffffffffffffffffff1673ffffffffffffffffffffffffffffffffffffffff168260405161054e90610fb0565b60006040518083038185875af1925050503d806000811461058b576040519150601f19603f3d011682016040523d82523d6000602084013e610590565b606091505b50509050806105d4576040517f08c379a00000000000000000000000000000000000000000000000000000000081526004016105cb90611048565b60405180910390fd5b5050565b60008054906101000a900460ff1681565b6000600460009054906101000a900473ffffffffffffffffffffffffffffffffffffffff16905090565b60008054906101000a900460ff1661062a57600080fd5b6106326105e9565b73ffffffffffffffffffffffffffffffffffffffff163373ffffffffffffffffffffffffffffffffffffffff1614610696576040517f5fc483c500000000000000000000000000000000000000000000000000000000815260040160405180910390fd5b6000600460009054906101000a900473ffffffffffffffffffffffffffffffffffffffff1673ffffffffffffffffffffffffffffffffffffffff16476040516106de90610fb0565b60006040518083038185875af1925050503d806000811461071b576040519150601f19603f3d011682016040523d82523d6000602084013e610720565b606091505b5050905080610764576040517f08c379a000000000000000000000000000000000000000000000000000000000815260040161075b90611048565b60405180910390fd5b50565b6000600354905090565b60008054906101000a900460ff1661078857600080fd5b6107906105e9565b73ffffffffffffffffffffffffffffffffffffffff163373ffffffffffffffffffffffffffffffffffffffff16146107f4576040517f5fc483c500000000000000000000000000000000000000000000000000000000815260040160405180910390fd5b600460009054906101000a900473ffffffffffffffffffffffffffffffffffffffff1673ffffffffffffffffffffffffffffffffffffffff16ff5b610837610a4f565b600160008381526020019081526020016000206040518060a00160405290816000820154815260200160018201548152602001600282015481526020016003820160009054906101000a900473ffffffffffffffffffffffffffffffffffffffff1673ffffffffffffffffffffffffffffffffffffffff1673ffffffffffffffffffffffffffffffffffffffff1681526020016003820160149054906101000a900460ff1660028111156108ee576108ed610d1f565b5b6002811115610900576108ff610d1f565b5b815250509050919050565b6109136105e9565b73ffffffffffffffffffffffffffffffffffffffff163373ffffffffffffffffffffffffffffffffffffffff1614610977576040517f5fc483c500000000000000000000000000000000000000000000000000000000815260040160405180910390fd5b60008060006101000a81548160ff021916908315150217905550565b61099b6105e9565b73ffffffffffffffffffffffffffffffffffffffff163373ffffffffffffffffffffffffffffffffffffffff16146109ff576040517f5fc483c500000000000000000000000000000000000000000000000000000000815260040160405180910390fd5b610a0881610a0b565b50565b80600460006101000a81548173ffffffffffffffffffffffffffffffffffffffff021916908373ffffffffffffffffffffffffffffffffffffffff16021790555050565b6040518060a00160405280600081526020016000815260200160008019168152602001600073ffffffffffffffffffffffffffffffffffffffff16815260200160006002811115610aa357610aa2610d1f565b5b81525090565b600080fd5b60007fffffffffffffffffffffffffffffffff0000000000000000000000000000000082169050919050565b610ae381610aae565b8114610aee57600080fd5b50565b600081359050610b0081610ada565b92915050565b6000819050919050565b610b1981610b06565b8114610b2457600080fd5b50565b600081359050610b3681610b10565b92915050565b60008060408385031215610b5357610b52610aa9565b5b6000610b6185828601610af1565b9250506020610b7285828601610b27565b9150509250929050565b6000819050919050565b610b8f81610b7c565b8114610b9a57600080fd5b50565b600081359050610bac81610b86565b92915050565b600060208284031215610bc857610bc7610aa9565b5b6000610bd684828501610b9d565b91505092915050565b610be881610b06565b82525050565b6000602082019050610c036000830184610bdf565b92915050565b60008115159050919050565b610c1e81610c09565b82525050565b6000602082019050610c396000830184610c15565b92915050565b600073ffffffffffffffffffffffffffffffffffffffff82169050919050565b6000610c6a82610c3f565b9050919050565b610c7a81610c5f565b82525050565b6000602082019050610c956000830184610c71565b92915050565b610ca481610b7c565b82525050565b6000602082019050610cbf6000830184610c9b565b92915050565b600060208284031215610cdb57610cda610aa9565b5b6000610ce984828501610b27565b91505092915050565b610cfb81610b7c565b82525050565b610d0a81610b06565b82525050565b610d1981610c5f565b82525050565b7f4e487b7100000000000000000000000000000000000000000000000000000000600052602160045260246000fd5b60038110610d5f57610d5e610d1f565b5b50565b6000819050610d7082610d4e565b919050565b6000610d8082610d62565b9050919050565b610d9081610d75565b82525050565b60a082016000820151610dac6000850182610cf2565b506020820151610dbf6020850182610cf2565b506040820151610dd26040850182610d01565b506060820151610de56060850182610d10565b506080820151610df86080850182610d87565b50505050565b600060a082019050610e136000830184610d96565b92915050565b610e2281610c5f565b8114610e2d57600080fd5b50565b600081359050610e3f81610e19565b92915050565b600060208284031215610e5b57610e5a610aa9565b5b6000610e6984828501610e30565b91505092915050565b6000819050919050565b610e8d610e8882610aae565b610e72565b82525050565b60008160601b9050919050565b6000610eab82610e93565b9050919050565b6000610ebd82610ea0565b9050919050565b610ed5610ed082610c5f565b610eb2565b82525050565b6000610ee78285610e7c565b601082019150610ef78284610ec4565b6014820191508190509392505050565b7f4e487b7100000000000000000000000000000000000000000000000000000000600052601160045260246000fd5b6000610f4182610b7c565b91507fffffffffffffffffffffffffffffffffffffffffffffffffffffffffffffffff821415610f7457610f73610f07565b5b600182019050919050565b600081905092915050565b50565b6000610f9a600083610f7f565b9150610fa582610f8a565b600082019050919050565b6000610fbb82610f8d565b9150819050919050565b600082825260208201905092915050565b7f5472616e73666572206f6620457468657220746f206f776e657220686173206660008201527f61696c65642e0000000000000000000000000000000000000000000000000000602082015250565b6000611032602683610fc5565b915061103d82610fd6565b604082019050919050565b6000602082019050818103600083015261106181611025565b905091905056fea26469706673582212209f584499785d33aa9326322ec50f93790e51a925d6ba006319bc1f5627a9817364736f6c634300080a0033",
  "immutableReferences": {},
  "source": "// SPDX-License-Identifier: MIT\r\npragma solidity >=0.4.22 <0.9.0;\r\n\r\ncontract MerchMarketPlace {\r\n    enum State {\r\n        Purchased,\r\n        Activated,\r\n        Desactivated\r\n    }\r\n\r\n    struct Merch {\r\n        uint256 id; // 32\r\n        uint256 price; // 32\r\n        bytes32 zkproof; // 32\r\n        address owner; // 20\r\n        State state; // 1\r\n    }\r\n\r\n    bool public isStopped = false;\r\n\r\n    // Mapping of merchHash to merchData\r\n    mapping(bytes32 => Merch) private ownedMerch;\r\n\r\n    // Mapping of merchId to merchHash\r\n    mapping(uint256 => bytes32) private ownedMerchHash;\r\n\r\n    uint256 private totalOwnedMerch;\r\n\r\n    address payable private owner;\r\n\r\n    constructor() {\r\n        setContractOwner(msg.sender);\r\n    }\r\n\r\n    // Only access for owner\r\n    error OnlyOwner();\r\n\r\n    modifier onlyOwner() {\r\n        if (msg.sender != getContractOwner()) {\r\n            revert OnlyOwner();\r\n        }\r\n        _;\r\n    }\r\n\r\n    modifier onlyWhenNotStopped() {\r\n        require(!isStopped);\r\n        _;\r\n    }\r\n\r\n    modifier onlyWhenIsStopped() {\r\n        require(isStopped);\r\n        _;\r\n    }\r\n\r\n    function stopContract() external onlyOwner {\r\n        isStopped = true;\r\n    }\r\n\r\n    function resumeContract() external onlyOwner {\r\n        isStopped = false;\r\n    }\r\n\r\n    receive() external payable {}\r\n\r\n    function withdrawEther(uint256 amount) external onlyOwner {\r\n        (bool success, ) = owner.call{value: amount}(\"\");\r\n        require(success, \"Transfer of Ether to owner has failed.\");\r\n    }\r\n\r\n    function superEmergencyWithdrawEther()\r\n        external\r\n        onlyWhenIsStopped\r\n        onlyOwner\r\n    {\r\n        (bool success, ) = owner.call{value: address(this).balance}(\"\");\r\n        require(success, \"Transfer of Ether to owner has failed.\");\r\n    }\r\n\r\n    function selfDestruct() external onlyWhenIsStopped onlyOwner {\r\n        selfdestruct(owner);\r\n    }\r\n\r\n    function purchaseMerch(bytes16 merchId, bytes32 zkproof)\r\n        external\r\n        payable\r\n        onlyWhenNotStopped\r\n    {\r\n        bytes32 merchHash = keccak256(abi.encodePacked(merchId, msg.sender));\r\n        uint256 id = totalOwnedMerch++;\r\n        ownedMerchHash[id] = merchHash;\r\n        ownedMerch[merchHash] = Merch({\r\n            id: id,\r\n            price: msg.value,\r\n            zkproof: zkproof,\r\n            owner: msg.sender,\r\n            state: State.Purchased\r\n        });\r\n    }\r\n\r\n    function transferOwnership(address newOwner) external onlyOwner {\r\n        setContractOwner(newOwner);\r\n    }\r\n\r\n    function getMerchCount() external view returns (uint256) {\r\n        return totalOwnedMerch;\r\n    }\r\n\r\n    function getMerchHashByIndex(uint256 index)\r\n        external\r\n        view\r\n        returns (bytes32)\r\n    {\r\n        return ownedMerchHash[index];\r\n    }\r\n\r\n    function getMerchByHash(bytes32 merchHash)\r\n        external\r\n        view\r\n        returns (Merch memory)\r\n    {\r\n        return ownedMerch[merchHash];\r\n    }\r\n\r\n    function getContractOwner() public view returns (address) {\r\n        return owner;\r\n    }\r\n\r\n    function setContractOwner(address newOwner) private {\r\n        owner = payable(newOwner);\r\n    }\r\n}\r\n",
  "sourcePath": "C:\\Users\\Firas\\Documents\\Workhole\\T-shop\\t-shop\\contracts\\MerchMarketplace.sol",
  "compiler": {
    "name": "solc",
    "version": "0.8.10+commit.fc410830.Emscripten.clang"
  },
  "schemaVersion": "3.4.4",
  "updatedAt": "2022-02-03T00:23:44.670Z",
  "networkType": "ethereum",
  "devdoc": {
    "kind": "dev",
    "methods": {},
    "version": 1
  },
  "userdoc": {
    "kind": "user",
    "methods": {},
    "version": 1
  }
}