{
  "contractName": "MerchMarketPlace",
  "abi": [
    {
      "inputs": [],
      "stateMutability": "nonpayable",
      "type": "constructor"
    },
    {
      "inputs": [],
      "name": "OnlyOwner",
      "type": "error"
    },
    {
      "inputs": [
        {
          "internalType": "bytes16",
          "name": "merchId",
          "type": "bytes16"
        },
        {
          "internalType": "bytes32",
          "name": "zkproof",
          "type": "bytes32"
        }
      ],
      "name": "purchaseMerch",
      "outputs": [],
      "stateMutability": "payable",
      "type": "function",
      "payable": true
    },
    {
      "inputs": [
        {
          "internalType": "address",
          "name": "newOwner",
          "type": "address"
        }
      ],
      "name": "transferOwnership",
      "outputs": [],
      "stateMutability": "nonpayable",
      "type": "function"
    },
    {
      "inputs": [],
      "name": "getMerchCount",
      "outputs": [
        {
          "internalType": "uint256",
          "name": "",
          "type": "uint256"
        }
      ],
      "stateMutability": "view",
      "type": "function",
      "constant": true
    },
    {
      "inputs": [
        {
          "internalType": "uint256",
          "name": "index",
          "type": "uint256"
        }
      ],
      "name": "getMerchHashByIndex",
      "outputs": [
        {
          "internalType": "bytes32",
          "name": "",
          "type": "bytes32"
        }
      ],
      "stateMutability": "view",
      "type": "function",
      "constant": true
    },
    {
      "inputs": [
        {
          "internalType": "bytes32",
          "name": "merchHash",
          "type": "bytes32"
        }
      ],
      "name": "getMerchByHash",
      "outputs": [
        {
          "components": [
            {
              "internalType": "uint256",
              "name": "id",
              "type": "uint256"
            },
            {
              "internalType": "uint256",
              "name": "price",
              "type": "uint256"
            },
            {
              "internalType": "bytes32",
              "name": "zkproof",
              "type": "bytes32"
            },
            {
              "internalType": "address",
              "name": "owner",
              "type": "address"
            },
            {
              "internalType": "enum MerchMarketPlace.State",
              "name": "state",
              "type": "uint8"
            }
          ],
          "internalType": "struct MerchMarketPlace.Merch",
          "name": "",
          "type": "tuple"
        }
      ],
      "stateMutability": "view",
      "type": "function",
      "constant": true
    },
    {
      "inputs": [],
      "name": "getContractOwner",
      "outputs": [
        {
          "internalType": "address",
          "name": "",
          "type": "address"
        }
      ],
      "stateMutability": "view",
      "type": "function",
      "constant": true
    }
  ],
  "bytecode": "0x608060405234801561001057600080fd5b506100203361002560201b60201c565b610069565b80600360006101000a81548173ffffffffffffffffffffffffffffffffffffffff021916908373ffffffffffffffffffffffffffffffffffffffff16021790555050565b610a1b806100786000396000f3fe6080604052600436106100555760003560e01c80630ec087b81461005a57806318dec3fd14610076578063442890d5146100b35780637fdc1401146100de578063c483bb7114610109578063f2fde38b14610146575b600080fd5b610074600480360381019061006f91906105a6565b61016f565b005b34801561008257600080fd5b5061009d6004803603810190610098919061061c565b6102d1565b6040516100aa9190610658565b60405180910390f35b3480156100bf57600080fd5b506100c86102ee565b6040516100d591906106b4565b60405180910390f35b3480156100ea57600080fd5b506100f3610318565b60405161010091906106de565b60405180910390f35b34801561011557600080fd5b50610130600480360381019061012b91906106f9565b610322565b60405161013d9190610832565b60405180910390f35b34801561015257600080fd5b5061016d60048036038101906101689190610879565b6103fd565b005b600082334260405160200161018693929190610930565b6040516020818303038152906040528051906020012090506000600260008154809291906101b39061099c565b9190505590508160016000838152602001908152602001600020819055506040518060a001604052808281526020013481526020018481526020013373ffffffffffffffffffffffffffffffffffffffff1681526020016000600281111561021e5761021d610753565b5b81525060008084815260200190815260200160002060008201518160000155602082015181600101556040820151816002015560608201518160030160006101000a81548173ffffffffffffffffffffffffffffffffffffffff021916908373ffffffffffffffffffffffffffffffffffffffff16021790555060808201518160030160146101000a81548160ff021916908360028111156102c3576102c2610753565b5b021790555090505050505050565b600060016000838152602001908152602001600020549050919050565b6000600360009054906101000a900473ffffffffffffffffffffffffffffffffffffffff16905090565b6000600254905090565b61032a6104b9565b6000808381526020019081526020016000206040518060a00160405290816000820154815260200160018201548152602001600282015481526020016003820160009054906101000a900473ffffffffffffffffffffffffffffffffffffffff1673ffffffffffffffffffffffffffffffffffffffff1673ffffffffffffffffffffffffffffffffffffffff1681526020016003820160149054906101000a900460ff1660028111156103e0576103df610753565b5b60028111156103f2576103f1610753565b5b815250509050919050565b6104056102ee565b73ffffffffffffffffffffffffffffffffffffffff163373ffffffffffffffffffffffffffffffffffffffff1614610469576040517f5fc483c500000000000000000000000000000000000000000000000000000000815260040160405180910390fd5b61047281610475565b50565b80600360006101000a81548173ffffffffffffffffffffffffffffffffffffffff021916908373ffffffffffffffffffffffffffffffffffffffff16021790555050565b6040518060a00160405280600081526020016000815260200160008019168152602001600073ffffffffffffffffffffffffffffffffffffffff1681526020016000600281111561050d5761050c610753565b5b81525090565b600080fd5b60007fffffffffffffffffffffffffffffffff0000000000000000000000000000000082169050919050565b61054d81610518565b811461055857600080fd5b50565b60008135905061056a81610544565b92915050565b6000819050919050565b61058381610570565b811461058e57600080fd5b50565b6000813590506105a08161057a565b92915050565b600080604083850312156105bd576105bc610513565b5b60006105cb8582860161055b565b92505060206105dc85828601610591565b9150509250929050565b6000819050919050565b6105f9816105e6565b811461060457600080fd5b50565b600081359050610616816105f0565b92915050565b60006020828403121561063257610631610513565b5b600061064084828501610607565b91505092915050565b61065281610570565b82525050565b600060208201905061066d6000830184610649565b92915050565b600073ffffffffffffffffffffffffffffffffffffffff82169050919050565b600061069e82610673565b9050919050565b6106ae81610693565b82525050565b60006020820190506106c960008301846106a5565b92915050565b6106d8816105e6565b82525050565b60006020820190506106f360008301846106cf565b92915050565b60006020828403121561070f5761070e610513565b5b600061071d84828501610591565b91505092915050565b61072f816105e6565b82525050565b61073e81610570565b82525050565b61074d81610693565b82525050565b7f4e487b7100000000000000000000000000000000000000000000000000000000600052602160045260246000fd5b6003811061079357610792610753565b5b50565b60008190506107a482610782565b919050565b60006107b482610796565b9050919050565b6107c4816107a9565b82525050565b60a0820160008201516107e06000850182610726565b5060208201516107f36020850182610726565b5060408201516108066040850182610735565b5060608201516108196060850182610744565b50608082015161082c60808501826107bb565b50505050565b600060a08201905061084760008301846107ca565b92915050565b61085681610693565b811461086157600080fd5b50565b6000813590506108738161084d565b92915050565b60006020828403121561088f5761088e610513565b5b600061089d84828501610864565b91505092915050565b6000819050919050565b6108c16108bc82610518565b6108a6565b82525050565b60008160601b9050919050565b60006108df826108c7565b9050919050565b60006108f1826108d4565b9050919050565b61090961090482610693565b6108e6565b82525050565b6000819050919050565b61092a610925826105e6565b61090f565b82525050565b600061093c82866108b0565b60108201915061094c82856108f8565b60148201915061095c8284610919565b602082019150819050949350505050565b7f4e487b7100000000000000000000000000000000000000000000000000000000600052601160045260246000fd5b60006109a7826105e6565b91507fffffffffffffffffffffffffffffffffffffffffffffffffffffffffffffffff8214156109da576109d961096d565b5b60018201905091905056fea26469706673582212204db7c01d90e19d67c23bb4f66cea15bf7caa70670138027eb2d70f04241e9aad64736f6c634300080a0033",
  "immutableReferences": {},
  "source": "// SPDX-License-Identifier: MIT\r\npragma solidity >=0.4.22 <0.9.0;\r\n\r\ncontract MerchMarketPlace {\r\n    enum State {\r\n        Purchased,\r\n        Activated,\r\n        Desactivated\r\n    }\r\n\r\n    struct Merch {\r\n        uint256 id; // 32\r\n        uint256 price; // 32\r\n        bytes32 zkproof; // 32\r\n        address owner; // 20\r\n        State state; // 1\r\n    }\r\n\r\n    // Mapping of merchHash to merchData\r\n    mapping(bytes32 => Merch) private ownedMerch;\r\n\r\n    // Mapping of merchId to merchHash\r\n    mapping(uint256 => bytes32) private ownedMerchHash;\r\n\r\n    uint256 private totalOwnedMerch;\r\n\r\n    address payable private owner;\r\n\r\n    constructor() {\r\n        setContractOwner(msg.sender);\r\n    }\r\n\r\n    // Only access for owner\r\n    error OnlyOwner();\r\n\r\n    modifier onlyOwner() {\r\n        if (msg.sender != getContractOwner()) {\r\n            revert OnlyOwner();\r\n        }\r\n        _;\r\n    }\r\n\r\n    function purchaseMerch(bytes16 merchId, bytes32 zkproof) external payable {\r\n        bytes32 merchHash = keccak256(\r\n            abi.encodePacked(merchId, msg.sender, block.timestamp)\r\n        );\r\n        uint256 id = totalOwnedMerch++;\r\n        ownedMerchHash[id] = merchHash;\r\n        ownedMerch[merchHash] = Merch({\r\n            id: id,\r\n            price: msg.value,\r\n            zkproof: zkproof,\r\n            owner: msg.sender,\r\n            state: State.Purchased\r\n        });\r\n    }\r\n\r\n    function transferOwnership(address newOwner) external onlyOwner {\r\n        setContractOwner(newOwner);\r\n    }\r\n\r\n    function getMerchCount() external view returns (uint256) {\r\n        return totalOwnedMerch;\r\n    }\r\n\r\n    function getMerchHashByIndex(uint256 index)\r\n        external\r\n        view\r\n        returns (bytes32)\r\n    {\r\n        return ownedMerchHash[index];\r\n    }\r\n\r\n    function getMerchByHash(bytes32 merchHash)\r\n        external\r\n        view\r\n        returns (Merch memory)\r\n    {\r\n        return ownedMerch[merchHash];\r\n    }\r\n\r\n    function getContractOwner() public view returns (address) {\r\n        return owner;\r\n    }\r\n\r\n    function setContractOwner(address newOwner) private {\r\n        owner = payable(newOwner);\r\n    }\r\n}\r\n",
  "sourcePath": "C:\\Users\\Firas\\Documents\\Workhole\\T-shop\\t-shop\\contracts\\MerchMarketplace.sol",
  "compiler": {
    "name": "solc",
    "version": "0.8.10+commit.fc410830.Emscripten.clang"
  },
  "schemaVersion": "3.4.4",
  "updatedAt": "2022-01-31T14:27:32.340Z",
  "networkType": "ethereum",
  "devdoc": {
    "kind": "dev",
    "methods": {},
    "version": 1
  },
  "userdoc": {
    "kind": "user",
    "methods": {},
    "version": 1
  }
}