{
  "contractName": "MerchMarketPlace",
  "abi": [
    {
      "inputs": [],
      "stateMutability": "nonpayable",
      "type": "constructor"
    },
    {
      "inputs": [],
      "name": "OnlyOwner",
      "type": "error"
    },
    {
      "inputs": [
        {
          "internalType": "bytes16",
          "name": "merchId",
          "type": "bytes16"
        },
        {
          "internalType": "bytes32",
          "name": "zkproof",
          "type": "bytes32"
        }
      ],
      "name": "purchaseMerch",
      "outputs": [],
      "stateMutability": "payable",
      "type": "function",
      "payable": true
    },
    {
      "inputs": [
        {
          "internalType": "address",
          "name": "newOwner",
          "type": "address"
        }
      ],
      "name": "transferOwnership",
      "outputs": [],
      "stateMutability": "nonpayable",
      "type": "function"
    },
    {
      "inputs": [],
      "name": "getMerchCount",
      "outputs": [
        {
          "internalType": "uint256",
          "name": "",
          "type": "uint256"
        }
      ],
      "stateMutability": "view",
      "type": "function",
      "constant": true
    },
    {
      "inputs": [
        {
          "internalType": "uint256",
          "name": "index",
          "type": "uint256"
        }
      ],
      "name": "getMerchHashByIndex",
      "outputs": [
        {
          "internalType": "bytes32",
          "name": "",
          "type": "bytes32"
        }
      ],
      "stateMutability": "view",
      "type": "function",
      "constant": true
    },
    {
      "inputs": [
        {
          "internalType": "bytes32",
          "name": "merchHash",
          "type": "bytes32"
        }
      ],
      "name": "getMerchByHash",
      "outputs": [
        {
          "components": [
            {
              "internalType": "uint256",
              "name": "id",
              "type": "uint256"
            },
            {
              "internalType": "uint256",
              "name": "price",
              "type": "uint256"
            },
            {
              "internalType": "bytes32",
              "name": "zkproof",
              "type": "bytes32"
            },
            {
              "internalType": "address",
              "name": "owner",
              "type": "address"
            },
            {
              "internalType": "enum MerchMarketPlace.State",
              "name": "state",
              "type": "uint8"
            }
          ],
          "internalType": "struct MerchMarketPlace.Merch",
          "name": "",
          "type": "tuple"
        }
      ],
      "stateMutability": "view",
      "type": "function",
      "constant": true
    },
    {
      "inputs": [],
      "name": "getContractOwner",
      "outputs": [
        {
          "internalType": "address",
          "name": "",
          "type": "address"
        }
      ],
      "stateMutability": "view",
      "type": "function",
      "constant": true
    }
  ],
  "bytecode": "0x608060405234801561001057600080fd5b506100203361002560201b60201c565b610069565b80600360006101000a81548173ffffffffffffffffffffffffffffffffffffffff021916908373ffffffffffffffffffffffffffffffffffffffff16021790555050565b6109e7806100786000396000f3fe6080604052600436106100555760003560e01c80630ec087b81461005a57806318dec3fd14610076578063442890d5146100b35780637fdc1401146100de578063c483bb7114610109578063f2fde38b14610146575b600080fd5b610074600480360381019061006f91906105a4565b61016f565b005b34801561008257600080fd5b5061009d6004803603810190610098919061061a565b6102cf565b6040516100aa9190610656565b60405180910390f35b3480156100bf57600080fd5b506100c86102ec565b6040516100d591906106b2565b60405180910390f35b3480156100ea57600080fd5b506100f3610316565b60405161010091906106dc565b60405180910390f35b34801561011557600080fd5b50610130600480360381019061012b91906106f7565b610320565b60405161013d9190610830565b60405180910390f35b34801561015257600080fd5b5061016d60048036038101906101689190610877565b6103fb565b005b6000823360405160200161018492919061090d565b6040516020818303038152906040528051906020012090506000600260008154809291906101b190610968565b9190505590508160016000838152602001908152602001600020819055506040518060a001604052808281526020013481526020018481526020013373ffffffffffffffffffffffffffffffffffffffff1681526020016000600281111561021c5761021b610751565b5b81525060008084815260200190815260200160002060008201518160000155602082015181600101556040820151816002015560608201518160030160006101000a81548173ffffffffffffffffffffffffffffffffffffffff021916908373ffffffffffffffffffffffffffffffffffffffff16021790555060808201518160030160146101000a81548160ff021916908360028111156102c1576102c0610751565b5b021790555090505050505050565b600060016000838152602001908152602001600020549050919050565b6000600360009054906101000a900473ffffffffffffffffffffffffffffffffffffffff16905090565b6000600254905090565b6103286104b7565b6000808381526020019081526020016000206040518060a00160405290816000820154815260200160018201548152602001600282015481526020016003820160009054906101000a900473ffffffffffffffffffffffffffffffffffffffff1673ffffffffffffffffffffffffffffffffffffffff1673ffffffffffffffffffffffffffffffffffffffff1681526020016003820160149054906101000a900460ff1660028111156103de576103dd610751565b5b60028111156103f0576103ef610751565b5b815250509050919050565b6104036102ec565b73ffffffffffffffffffffffffffffffffffffffff163373ffffffffffffffffffffffffffffffffffffffff1614610467576040517f5fc483c500000000000000000000000000000000000000000000000000000000815260040160405180910390fd5b61047081610473565b50565b80600360006101000a81548173ffffffffffffffffffffffffffffffffffffffff021916908373ffffffffffffffffffffffffffffffffffffffff16021790555050565b6040518060a00160405280600081526020016000815260200160008019168152602001600073ffffffffffffffffffffffffffffffffffffffff1681526020016000600281111561050b5761050a610751565b5b81525090565b600080fd5b60007fffffffffffffffffffffffffffffffff0000000000000000000000000000000082169050919050565b61054b81610516565b811461055657600080fd5b50565b60008135905061056881610542565b92915050565b6000819050919050565b6105818161056e565b811461058c57600080fd5b50565b60008135905061059e81610578565b92915050565b600080604083850312156105bb576105ba610511565b5b60006105c985828601610559565b92505060206105da8582860161058f565b9150509250929050565b6000819050919050565b6105f7816105e4565b811461060257600080fd5b50565b600081359050610614816105ee565b92915050565b6000602082840312156106305761062f610511565b5b600061063e84828501610605565b91505092915050565b6106508161056e565b82525050565b600060208201905061066b6000830184610647565b92915050565b600073ffffffffffffffffffffffffffffffffffffffff82169050919050565b600061069c82610671565b9050919050565b6106ac81610691565b82525050565b60006020820190506106c760008301846106a3565b92915050565b6106d6816105e4565b82525050565b60006020820190506106f160008301846106cd565b92915050565b60006020828403121561070d5761070c610511565b5b600061071b8482850161058f565b91505092915050565b61072d816105e4565b82525050565b61073c8161056e565b82525050565b61074b81610691565b82525050565b7f4e487b7100000000000000000000000000000000000000000000000000000000600052602160045260246000fd5b6003811061079157610790610751565b5b50565b60008190506107a282610780565b919050565b60006107b282610794565b9050919050565b6107c2816107a7565b82525050565b60a0820160008201516107de6000850182610724565b5060208201516107f16020850182610724565b5060408201516108046040850182610733565b5060608201516108176060850182610742565b50608082015161082a60808501826107b9565b50505050565b600060a08201905061084560008301846107c8565b92915050565b61085481610691565b811461085f57600080fd5b50565b6000813590506108718161084b565b92915050565b60006020828403121561088d5761088c610511565b5b600061089b84828501610862565b91505092915050565b6000819050919050565b6108bf6108ba82610516565b6108a4565b82525050565b60008160601b9050919050565b60006108dd826108c5565b9050919050565b60006108ef826108d2565b9050919050565b61090761090282610691565b6108e4565b82525050565b600061091982856108ae565b60108201915061092982846108f6565b6014820191508190509392505050565b7f4e487b7100000000000000000000000000000000000000000000000000000000600052601160045260246000fd5b6000610973826105e4565b91507fffffffffffffffffffffffffffffffffffffffffffffffffffffffffffffffff8214156109a6576109a5610939565b5b60018201905091905056fea2646970667358221220b4e22bf0749e3f4a440fea191a5cab8daed300e037397580870201ab9d7617e664736f6c634300080a0033",
  "immutableReferences": {},
  "source": "// SPDX-License-Identifier: MIT\r\npragma solidity >=0.4.22 <0.9.0;\r\n\r\ncontract MerchMarketPlace {\r\n    enum State {\r\n        Purchased,\r\n        Activated,\r\n        Desactivated\r\n    }\r\n\r\n    struct Merch {\r\n        uint256 id; // 32\r\n        uint256 price; // 32\r\n        bytes32 zkproof; // 32\r\n        address owner; // 20\r\n        State state; // 1\r\n    }\r\n\r\n    // Mapping of merchHash to merchData\r\n    mapping(bytes32 => Merch) private ownedMerch;\r\n\r\n    // Mapping of merchId to merchHash\r\n    mapping(uint256 => bytes32) private ownedMerchHash;\r\n\r\n    uint256 private totalOwnedMerch;\r\n\r\n    address payable private owner;\r\n\r\n    constructor() {\r\n        setContractOwner(msg.sender);\r\n    }\r\n\r\n    // Only access for owner\r\n    error OnlyOwner();\r\n\r\n    modifier onlyOwner() {\r\n        if (msg.sender != getContractOwner()) {\r\n            revert OnlyOwner();\r\n        }\r\n        _;\r\n    }\r\n\r\n    function purchaseMerch(bytes16 merchId, bytes32 zkproof) external payable {\r\n        bytes32 merchHash = keccak256(\r\n            abi.encodePacked(merchId, msg.sender)\r\n        );\r\n        uint256 id = totalOwnedMerch++;\r\n        ownedMerchHash[id] = merchHash;\r\n        ownedMerch[merchHash] = Merch({\r\n            id: id,\r\n            price: msg.value,\r\n            zkproof: zkproof,\r\n            owner: msg.sender,\r\n            state: State.Purchased\r\n        });\r\n    }\r\n\r\n    function transferOwnership(address newOwner) external onlyOwner {\r\n        setContractOwner(newOwner);\r\n    }\r\n\r\n    function getMerchCount() external view returns (uint256) {\r\n        return totalOwnedMerch;\r\n    }\r\n\r\n    function getMerchHashByIndex(uint256 index)\r\n        external\r\n        view\r\n        returns (bytes32)\r\n    {\r\n        return ownedMerchHash[index];\r\n    }\r\n\r\n    function getMerchByHash(bytes32 merchHash)\r\n        external\r\n        view\r\n        returns (Merch memory)\r\n    {\r\n        return ownedMerch[merchHash];\r\n    }\r\n\r\n    function getContractOwner() public view returns (address) {\r\n        return owner;\r\n    }\r\n\r\n    function setContractOwner(address newOwner) private {\r\n        owner = payable(newOwner);\r\n    }\r\n}\r\n",
  "sourcePath": "C:\\Users\\Firas\\Documents\\Workhole\\T-shop\\t-shop\\contracts\\MerchMarketplace.sol",
  "compiler": {
    "name": "solc",
    "version": "0.8.10+commit.fc410830.Emscripten.clang"
  },
  "schemaVersion": "3.4.4",
  "updatedAt": "2022-02-02T00:21:56.237Z",
  "networkType": "ethereum",
  "devdoc": {
    "kind": "dev",
    "methods": {},
    "version": 1
  },
  "userdoc": {
    "kind": "user",
    "methods": {},
    "version": 1
  }
}